{
  "contractName": "Astro_ERC20_Token",
  "abi": [
    {
      "inputs": [],
      "stateMutability": "nonpayable",
      "type": "constructor"
    },
    {
      "anonymous": false,
      "inputs": [
        {
          "indexed": true,
          "internalType": "address",
          "name": "owner",
          "type": "address"
        },
        {
          "indexed": true,
          "internalType": "address",
          "name": "spender",
          "type": "address"
        },
        {
          "indexed": false,
          "internalType": "uint256",
          "name": "value",
          "type": "uint256"
        }
      ],
      "name": "Approval",
      "type": "event"
    },
    {
      "anonymous": false,
      "inputs": [
        {
          "indexed": false,
          "internalType": "address",
          "name": "updater",
          "type": "address"
        },
        {
          "indexed": false,
          "internalType": "uint256",
          "name": "newPrice",
          "type": "uint256"
        }
      ],
      "name": "Lot_Sell_Price_Changed",
      "type": "event"
    },
    {
      "anonymous": false,
      "inputs": [
        {
          "indexed": true,
          "internalType": "address",
          "name": "previousOwner",
          "type": "address"
        },
        {
          "indexed": true,
          "internalType": "address",
          "name": "newOwner",
          "type": "address"
        }
      ],
      "name": "OwnershipTransferred",
      "type": "event"
    },
    {
      "anonymous": false,
      "inputs": [
        {
          "indexed": true,
          "internalType": "bytes32",
          "name": "role",
          "type": "bytes32"
        },
        {
          "indexed": true,
          "internalType": "bytes32",
          "name": "previousAdminRole",
          "type": "bytes32"
        },
        {
          "indexed": true,
          "internalType": "bytes32",
          "name": "newAdminRole",
          "type": "bytes32"
        }
      ],
      "name": "RoleAdminChanged",
      "type": "event"
    },
    {
      "anonymous": false,
      "inputs": [
        {
          "indexed": true,
          "internalType": "bytes32",
          "name": "role",
          "type": "bytes32"
        },
        {
          "indexed": true,
          "internalType": "address",
          "name": "account",
          "type": "address"
        },
        {
          "indexed": true,
          "internalType": "address",
          "name": "sender",
          "type": "address"
        }
      ],
      "name": "RoleGranted",
      "type": "event"
    },
    {
      "anonymous": false,
      "inputs": [
        {
          "indexed": true,
          "internalType": "bytes32",
          "name": "role",
          "type": "bytes32"
        },
        {
          "indexed": true,
          "internalType": "address",
          "name": "account",
          "type": "address"
        },
        {
          "indexed": true,
          "internalType": "address",
          "name": "sender",
          "type": "address"
        }
      ],
      "name": "RoleRevoked",
      "type": "event"
    },
    {
      "anonymous": false,
      "inputs": [
        {
          "indexed": true,
          "internalType": "address",
          "name": "from",
          "type": "address"
        },
        {
          "indexed": true,
          "internalType": "address",
          "name": "to",
          "type": "address"
        },
        {
          "indexed": false,
          "internalType": "uint256",
          "name": "value",
          "type": "uint256"
        }
      ],
      "name": "Transfer",
      "type": "event"
    },
    {
      "anonymous": false,
      "inputs": [
        {
          "indexed": false,
          "internalType": "string",
          "name": "info",
          "type": "string"
        },
        {
          "indexed": false,
          "internalType": "uint256",
          "name": "tokens_num",
          "type": "uint256"
        }
      ],
      "name": "tokenPending",
      "type": "event"
    },
    {
      "stateMutability": "payable",
      "type": "fallback",
      "payable": true
    },
    {
      "inputs": [],
      "name": "DEFAULT_ADMIN_ROLE",
      "outputs": [
        {
          "internalType": "bytes32",
          "name": "",
          "type": "bytes32"
        }
      ],
      "stateMutability": "view",
      "type": "function",
      "constant": true
    },
    {
      "inputs": [],
      "name": "Lot_Sell_Price",
      "outputs": [
        {
          "internalType": "uint256",
          "name": "",
          "type": "uint256"
        }
      ],
      "stateMutability": "view",
      "type": "function",
      "constant": true
    },
    {
      "inputs": [],
      "name": "PRICE_APPROVER_ROLE",
      "outputs": [
        {
          "internalType": "bytes32",
          "name": "",
          "type": "bytes32"
        }
      ],
      "stateMutability": "view",
      "type": "function",
      "constant": true
    },
    {
      "inputs": [],
      "name": "Token_Sale_Lot",
      "outputs": [
        {
          "internalType": "uint256",
          "name": "",
          "type": "uint256"
        }
      ],
      "stateMutability": "view",
      "type": "function",
      "constant": true
    },
    {
      "inputs": [],
      "name": "_Owner",
      "outputs": [
        {
          "internalType": "address",
          "name": "",
          "type": "address"
        }
      ],
      "stateMutability": "view",
      "type": "function",
      "constant": true
    },
    {
      "inputs": [],
      "name": "_cap",
      "outputs": [
        {
          "internalType": "uint256",
          "name": "",
          "type": "uint256"
        }
      ],
      "stateMutability": "view",
      "type": "function",
      "constant": true
    },
    {
      "inputs": [
        {
          "internalType": "address",
          "name": "owner",
          "type": "address"
        },
        {
          "internalType": "address",
          "name": "spender",
          "type": "address"
        }
      ],
      "name": "allowance",
      "outputs": [
        {
          "internalType": "uint256",
          "name": "",
          "type": "uint256"
        }
      ],
      "stateMutability": "view",
      "type": "function",
      "constant": true
    },
    {
      "inputs": [
        {
          "internalType": "address",
          "name": "spender",
          "type": "address"
        },
        {
          "internalType": "uint256",
          "name": "amount",
          "type": "uint256"
        }
      ],
      "name": "approve",
      "outputs": [
        {
          "internalType": "bool",
          "name": "",
          "type": "bool"
        }
      ],
      "stateMutability": "nonpayable",
      "type": "function"
    },
    {
      "inputs": [
        {
          "internalType": "address",
          "name": "account",
          "type": "address"
        }
      ],
      "name": "balanceOf",
      "outputs": [
        {
          "internalType": "uint256",
          "name": "",
          "type": "uint256"
        }
      ],
      "stateMutability": "view",
      "type": "function",
      "constant": true
    },
    {
      "inputs": [],
      "name": "decimals",
      "outputs": [
        {
          "internalType": "uint8",
          "name": "",
          "type": "uint8"
        }
      ],
      "stateMutability": "view",
      "type": "function",
      "constant": true
    },
    {
      "inputs": [
        {
          "internalType": "address",
          "name": "spender",
          "type": "address"
        },
        {
          "internalType": "uint256",
          "name": "subtractedValue",
          "type": "uint256"
        }
      ],
      "name": "decreaseAllowance",
      "outputs": [
        {
          "internalType": "bool",
          "name": "",
          "type": "bool"
        }
      ],
      "stateMutability": "nonpayable",
      "type": "function"
    },
    {
      "inputs": [
        {
          "internalType": "bytes32",
          "name": "role",
          "type": "bytes32"
        }
      ],
      "name": "getRoleAdmin",
      "outputs": [
        {
          "internalType": "bytes32",
          "name": "",
          "type": "bytes32"
        }
      ],
      "stateMutability": "view",
      "type": "function",
      "constant": true
    },
    {
      "inputs": [
        {
          "internalType": "bytes32",
          "name": "role",
          "type": "bytes32"
        },
        {
          "internalType": "address",
          "name": "account",
          "type": "address"
        }
      ],
      "name": "grantRole",
      "outputs": [],
      "stateMutability": "nonpayable",
      "type": "function"
    },
    {
      "inputs": [
        {
          "internalType": "bytes32",
          "name": "role",
          "type": "bytes32"
        },
        {
          "internalType": "address",
          "name": "account",
          "type": "address"
        }
      ],
      "name": "hasRole",
      "outputs": [
        {
          "internalType": "bool",
          "name": "",
          "type": "bool"
        }
      ],
      "stateMutability": "view",
      "type": "function",
      "constant": true
    },
    {
      "inputs": [
        {
          "internalType": "address",
          "name": "spender",
          "type": "address"
        },
        {
          "internalType": "uint256",
          "name": "addedValue",
          "type": "uint256"
        }
      ],
      "name": "increaseAllowance",
      "outputs": [
        {
          "internalType": "bool",
          "name": "",
          "type": "bool"
        }
      ],
      "stateMutability": "nonpayable",
      "type": "function"
    },
    {
      "inputs": [],
      "name": "initialSupply",
      "outputs": [
        {
          "internalType": "uint256",
          "name": "",
          "type": "uint256"
        }
      ],
      "stateMutability": "view",
      "type": "function",
      "constant": true
    },
    {
      "inputs": [],
      "name": "name",
      "outputs": [
        {
          "internalType": "string",
          "name": "",
          "type": "string"
        }
      ],
      "stateMutability": "view",
      "type": "function",
      "constant": true
    },
    {
      "inputs": [],
      "name": "owner",
      "outputs": [
        {
          "internalType": "address",
          "name": "",
          "type": "address"
        }
      ],
      "stateMutability": "view",
      "type": "function",
      "constant": true
    },
    {
      "inputs": [],
      "name": "releaseTime",
      "outputs": [
        {
          "internalType": "uint256",
          "name": "",
          "type": "uint256"
        }
      ],
      "stateMutability": "view",
      "type": "function",
      "constant": true
    },
    {
      "inputs": [],
      "name": "renounceOwnership",
      "outputs": [],
      "stateMutability": "nonpayable",
      "type": "function"
    },
    {
      "inputs": [
        {
          "internalType": "bytes32",
          "name": "role",
          "type": "bytes32"
        },
        {
          "internalType": "address",
          "name": "account",
          "type": "address"
        }
      ],
      "name": "renounceRole",
      "outputs": [],
      "stateMutability": "nonpayable",
      "type": "function"
    },
    {
      "inputs": [
        {
          "internalType": "bytes32",
          "name": "role",
          "type": "bytes32"
        },
        {
          "internalType": "address",
          "name": "account",
          "type": "address"
        }
      ],
      "name": "revokeRole",
      "outputs": [],
      "stateMutability": "nonpayable",
      "type": "function"
    },
    {
      "inputs": [
        {
          "internalType": "bytes4",
          "name": "interfaceId",
          "type": "bytes4"
        }
      ],
      "name": "supportsInterface",
      "outputs": [
        {
          "internalType": "bool",
          "name": "",
          "type": "bool"
        }
      ],
      "stateMutability": "view",
      "type": "function",
      "constant": true
    },
    {
      "inputs": [],
      "name": "symbol",
      "outputs": [
        {
          "internalType": "string",
          "name": "",
          "type": "string"
        }
      ],
      "stateMutability": "view",
      "type": "function",
      "constant": true
    },
    {
      "inputs": [],
      "name": "totalSupply",
      "outputs": [
        {
          "internalType": "uint256",
          "name": "",
          "type": "uint256"
        }
      ],
      "stateMutability": "view",
      "type": "function",
      "constant": true
    },
    {
      "inputs": [
        {
          "internalType": "address",
          "name": "sender",
          "type": "address"
        },
        {
          "internalType": "address",
          "name": "recipient",
          "type": "address"
        },
        {
          "internalType": "uint256",
          "name": "amount",
          "type": "uint256"
        }
      ],
      "name": "transferFrom",
      "outputs": [
        {
          "internalType": "bool",
          "name": "",
          "type": "bool"
        }
      ],
      "stateMutability": "nonpayable",
      "type": "function"
    },
    {
      "inputs": [
        {
          "internalType": "address",
          "name": "newOwner",
          "type": "address"
        }
      ],
      "name": "transferOwnership",
      "outputs": [],
      "stateMutability": "nonpayable",
      "type": "function"
    },
    {
      "stateMutability": "payable",
      "type": "receive",
      "payable": true
    },
    {
      "inputs": [
        {
          "internalType": "address",
          "name": "account",
          "type": "address"
        },
        {
          "internalType": "uint256",
          "name": "_Tokens",
          "type": "uint256"
        }
      ],
      "name": "generateToken",
      "outputs": [],
      "stateMutability": "nonpayable",
      "type": "function"
    },
    {
      "inputs": [],
      "name": "buyToken",
      "outputs": [],
      "stateMutability": "payable",
      "type": "function",
      "payable": true
    },
    {
      "inputs": [
        {
          "internalType": "address",
          "name": "beneficiary",
          "type": "address"
        },
        {
          "internalType": "uint256",
          "name": "lockedTokens",
          "type": "uint256"
        }
      ],
      "name": "transfer",
      "outputs": [
        {
          "internalType": "bool",
          "name": "",
          "type": "bool"
        }
      ],
      "stateMutability": "nonpayable",
      "type": "function"
    },
    {
      "inputs": [
        {
          "internalType": "uint256",
          "name": "_newListPrice",
          "type": "uint256"
        }
      ],
      "name": "changeListPrice",
      "outputs": [],
      "stateMutability": "nonpayable",
      "type": "function"
    },
    {
      "inputs": [
        {
          "internalType": "uint256",
          "name": "claimed_CLT",
          "type": "uint256"
        }
      ],
      "name": "tokenReturn",
      "outputs": [
        {
          "internalType": "bool",
          "name": "",
          "type": "bool"
        }
      ],
      "stateMutability": "nonpayable",
      "type": "function"
    },
    {
      "inputs": [],
      "name": "getEtherBalCon",
      "outputs": [
        {
          "internalType": "uint256",
          "name": "",
          "type": "uint256"
        }
      ],
      "stateMutability": "view",
      "type": "function",
      "constant": true
    }
  ],
  "bytecode": "0x60806040527ff8d137b268b5d79fc1a845e0d8b9e5819c7d3c16acafdc16ff3f6bc43d776ee8600e553480156200003557600080fd5b506040518060400160405280600b81526020017f417374726f20546f6b656e0000000000000000000000000000000000000000008152506040518060400160405280600281526020017f41540000000000000000000000000000000000000000000000000000000000008152508160039080519060200190620000ba929190620006a0565b508060049080519060200190620000d3929190620006a0565b505050620000f6620000ea620002b160201b60201c565b620002b960201b60201c565b620001066200037f60201b60201c565b60ff16600a62000117919062000890565b6207a120620001279190620009cd565b6008819055506200014b614e206008546200038860201b620019091790919060201c565b600781905550603c42620001609190620007d8565b60098190555033600d60006101000a81548173ffffffffffffffffffffffffffffffffffffffff021916908373ffffffffffffffffffffffffffffffffffffffff160217905550620001de6000801b600d60009054906101000a900473ffffffffffffffffffffffffffffffffffffffff16620003a060201b60201c565b620001f233600854620003b660201b60201c565b620002026200052f60201b60201c565b600f6000600d60009054906101000a900473ffffffffffffffffffffffffffffffffffffffff1673ffffffffffffffffffffffffffffffffffffffff1673ffffffffffffffffffffffffffffffffffffffff16815260200190815260200160002081905550620002776200037f60201b60201c565b60ff16600a62000288919062000890565b6064620002969190620009cd565b600a81905550670de0b6b3a7640000600b8190555062000b02565b600033905090565b6000600560009054906101000a900473ffffffffffffffffffffffffffffffffffffffff16905081600560006101000a81548173ffffffffffffffffffffffffffffffffffffffff021916908373ffffffffffffffffffffffffffffffffffffffff1602179055508173ffffffffffffffffffffffffffffffffffffffff168173ffffffffffffffffffffffffffffffffffffffff167f8be0079c531659141344cd1fd0a4f28419497f9722a3daafe3b4186f6b6457e060405160405180910390a35050565b60006012905090565b60008183620003989190620009cd565b905092915050565b620003b282826200053960201b60201c565b5050565b600073ffffffffffffffffffffffffffffffffffffffff168273ffffffffffffffffffffffffffffffffffffffff16141562000429576040517f08c379a0000000000000000000000000000000000000000000000000000000008152600401620004209062000788565b60405180910390fd5b6200043d600083836200062b60201b60201c565b8060026000828254620004519190620007d8565b92505081905550806000808473ffffffffffffffffffffffffffffffffffffffff1673ffffffffffffffffffffffffffffffffffffffff1681526020019081526020016000206000828254620004a89190620007d8565b925050819055508173ffffffffffffffffffffffffffffffffffffffff16600073ffffffffffffffffffffffffffffffffffffffff167fddf252ad1be2c89b69c2b068fc378daa952ba7f163c4a11628f55a4df523b3ef836040516200050f9190620007aa565b60405180910390a36200052b600083836200063060201b60201c565b5050565b6000600254905090565b6200054b82826200063560201b60201c565b620006275760016006600084815260200190815260200160002060000160008373ffffffffffffffffffffffffffffffffffffffff1673ffffffffffffffffffffffffffffffffffffffff16815260200190815260200160002060006101000a81548160ff021916908315150217905550620005cc620002b160201b60201c565b73ffffffffffffffffffffffffffffffffffffffff168173ffffffffffffffffffffffffffffffffffffffff16837f2f8788117e7eff1d82e926ec794901d17c78024a50270940304540a733656f0d60405160405180910390a45b5050565b505050565b505050565b60006006600084815260200190815260200160002060000160008373ffffffffffffffffffffffffffffffffffffffff1673ffffffffffffffffffffffffffffffffffffffff16815260200190815260200160002060009054906101000a900460ff16905092915050565b828054620006ae9062000a38565b90600052602060002090601f016020900481019282620006d257600085556200071e565b82601f10620006ed57805160ff19168380011785556200071e565b828001600101855582156200071e579182015b828111156200071d57825182559160200191906001019062000700565b5b5090506200072d919062000731565b5090565b5b808211156200074c57600081600090555060010162000732565b5090565b60006200075f601f83620007c7565b91506200076c8262000ad9565b602082019050919050565b620007828162000a2e565b82525050565b60006020820190508181036000830152620007a38162000750565b9050919050565b6000602082019050620007c1600083018462000777565b92915050565b600082825260208201905092915050565b6000620007e58262000a2e565b9150620007f28362000a2e565b9250827fffffffffffffffffffffffffffffffffffffffffffffffffffffffffffffffff038211156200082a576200082962000a6e565b5b828201905092915050565b6000808291508390505b600185111562000887578086048111156200085f576200085e62000a6e565b5b60018516156200086f5780820291505b80810290506200087f8562000acc565b94506200083f565b94509492505050565b60006200089d8262000a2e565b9150620008aa8362000a2e565b9250620008d97fffffffffffffffffffffffffffffffffffffffffffffffffffffffffffffffff8484620008e1565b905092915050565b600082620008f35760019050620009c6565b81620009035760009050620009c6565b81600181146200091c576002811462000927576200095d565b6001915050620009c6565b60ff8411156200093c576200093b62000a6e565b5b8360020a91508482111562000956576200095562000a6e565b5b50620009c6565b5060208310610133831016604e8410600b8410161715620009975782820a90508381111562000991576200099062000a6e565b5b620009c6565b620009a6848484600162000835565b92509050818404811115620009c057620009bf62000a6e565b5b81810290505b9392505050565b6000620009da8262000a2e565b9150620009e78362000a2e565b9250817fffffffffffffffffffffffffffffffffffffffffffffffffffffffffffffffff048311821515161562000a235762000a2262000a6e565b5b828202905092915050565b6000819050919050565b6000600282049050600182168062000a5157607f821691505b6020821081141562000a685762000a6762000a9d565b5b50919050565b7f4e487b7100000000000000000000000000000000000000000000000000000000600052601160045260246000fd5b7f4e487b7100000000000000000000000000000000000000000000000000000000600052602260045260246000fd5b60008160011c9050919050565b7f45524332303a206d696e7420746f20746865207a65726f206164647265737300600082015250565b613be38062000b126000396000f3fe6080604052600436106101f25760003560e01c8063715018a61161010d578063a9059cbb116100a0578063dcc234551161006f578063dcc234551461072c578063dd62ed3e14610757578063ddb35c2e14610794578063f2fde38b146107bf578063ff09aa6e146107e8576101f9565b8063a9059cbb14610670578063b60c5582146106ad578063b91d4001146106d8578063d547741f14610703576101f9565b80639f2dd2b3116100dc5780639f2dd2b3146105d3578063a217fddf146105fe578063a457c2d714610629578063a482171914610666576101f9565b8063715018a6146105295780638da5cb5b1461054057806391d148541461056b57806395d89b41146105a8576101f9565b80632f2ff15d11610185578063378dc3dc11610154578063378dc3dc1461044757806339509351146104725780635c034d17146104af57806370a08231146104ec576101f9565b80632f2ff15d146103a1578063313ce567146103ca5780633512ae99146103f557806336568abe1461041e576101f9565b806318160ddd116101c157806318160ddd146102d3578063188b5372146102fe57806323b872dd14610327578063248a9ca314610364576101f9565b806301ffc9a714610203578063060cf4e81461024057806306fdde031461026b578063095ea7b314610296576101f9565b366101f957005b610201610813565b005b34801561020f57600080fd5b5061022a6004803603810190610225919061287a565b6109f1565b6040516102379190612db0565b60405180910390f35b34801561024c57600080fd5b50610255610a6b565b6040516102629190613136565b60405180910390f35b34801561027757600080fd5b50610280610a71565b60405161028d9190612de6565b60405180910390f35b3480156102a257600080fd5b506102bd60048036038101906102b891906127d9565b610b03565b6040516102ca9190612db0565b60405180910390f35b3480156102df57600080fd5b506102e8610b21565b6040516102f59190613136565b60405180910390f35b34801561030a57600080fd5b50610325600480360381019061032091906127d9565b610b2b565b005b34801561033357600080fd5b5061034e6004803603810190610349919061278a565b610cc6565b60405161035b9190612db0565b60405180910390f35b34801561037057600080fd5b5061038b60048036038101906103869190612815565b610dbe565b6040516103989190612dcb565b60405180910390f35b3480156103ad57600080fd5b506103c860048036038101906103c3919061283e565b610dde565b005b3480156103d657600080fd5b506103df610e07565b6040516103ec9190613151565b60405180910390f35b34801561040157600080fd5b5061041c600480360381019061041791906128a3565b610e10565b005b34801561042a57600080fd5b506104456004803603810190610440919061283e565b610ef6565b005b34801561045357600080fd5b5061045c610f79565b6040516104699190613136565b60405180910390f35b34801561047e57600080fd5b50610499600480360381019061049491906127d9565b610f7f565b6040516104a69190612db0565b60405180910390f35b3480156104bb57600080fd5b506104d660048036038101906104d191906128a3565b61102b565b6040516104e39190612db0565b60405180910390f35b3480156104f857600080fd5b50610513600480360381019061050e9190612725565b611294565b6040516105209190613136565b60405180910390f35b34801561053557600080fd5b5061053e6112dc565b005b34801561054c57600080fd5b50610555611364565b6040516105629190612d6c565b60405180910390f35b34801561057757600080fd5b50610592600480360381019061058d919061283e565b61138e565b60405161059f9190612db0565b60405180910390f35b3480156105b457600080fd5b506105bd6113f9565b6040516105ca9190612de6565b60405180910390f35b3480156105df57600080fd5b506105e861148b565b6040516105f59190613136565b60405180910390f35b34801561060a57600080fd5b50610613611491565b6040516106209190612dcb565b60405180910390f35b34801561063557600080fd5b50610650600480360381019061064b91906127d9565b611498565b60405161065d9190612db0565b60405180910390f35b61066e610813565b005b34801561067c57600080fd5b50610697600480360381019061069291906127d9565b611583565b6040516106a49190612db0565b60405180910390f35b3480156106b957600080fd5b506106c2611721565b6040516106cf9190613136565b60405180910390f35b3480156106e457600080fd5b506106ed611729565b6040516106fa9190613136565b60405180910390f35b34801561070f57600080fd5b5061072a6004803603810190610725919061283e565b61172f565b005b34801561073857600080fd5b50610741611758565b60405161074e9190612d6c565b60405180910390f35b34801561076357600080fd5b5061077e6004803603810190610779919061274e565b61177e565b60405161078b9190613136565b60405180910390f35b3480156107a057600080fd5b506107a9611805565b6040516107b69190613136565b60405180910390f35b3480156107cb57600080fd5b506107e660048036038101906107e19190612725565b61180b565b005b3480156107f457600080fd5b506107fd611903565b60405161080a9190612dcb565b60405180910390f35b6000600b5411610858576040517f08c379a000000000000000000000000000000000000000000000000000000000815260040161084f90613036565b60405180910390fd5b6000341161089b576040517f08c379a000000000000000000000000000000000000000000000000000000000815260040161089290613056565b60405180910390fd5b6108c4600b546108b6600a543461190990919063ffffffff16565b61191f90919063ffffffff16565b600c81905550600f6000600d60009054906101000a900473ffffffffffffffffffffffffffffffffffffffff1673ffffffffffffffffffffffffffffffffffffffff1673ffffffffffffffffffffffffffffffffffffffff16815260200190815260200160002054600c541115610970576040517f08c379a000000000000000000000000000000000000000000000000000000000815260040161096790612fa8565b60405180910390fd5b600c54601060003373ffffffffffffffffffffffffffffffffffffffff1673ffffffffffffffffffffffffffffffffffffffff168152602001908152602001600020819055507f30d30425d442bfda291e49ab863cea61cc53d05dc79fcfe289f7346d9292166c600c546040516109e79190612fc8565b60405180910390a1565b60007f7965db0b000000000000000000000000000000000000000000000000000000007bffffffffffffffffffffffffffffffffffffffffffffffffffffffff1916827bffffffffffffffffffffffffffffffffffffffffffffffffffffffff19161480610a645750610a6382611935565b5b9050919050565b60075481565b606060038054610a809061335c565b80601f0160208091040260200160405190810160405280929190818152602001828054610aac9061335c565b8015610af95780601f10610ace57610100808354040283529160200191610af9565b820191906000526020600020905b815481529060010190602001808311610adc57829003601f168201915b5050505050905090565b6000610b17610b1061199f565b84846119a7565b6001905092915050565b6000600254905090565b610b3361199f565b73ffffffffffffffffffffffffffffffffffffffff16610b51611364565b73ffffffffffffffffffffffffffffffffffffffff1614610ba7576040517f08c379a0000000000000000000000000000000000000000000000000000000008152600401610b9e90612f88565b60405180910390fd5b600073ffffffffffffffffffffffffffffffffffffffff168273ffffffffffffffffffffffffffffffffffffffff161415610c17576040517f08c379a0000000000000000000000000000000000000000000000000000000008152600401610c0e90612f28565b60405180910390fd5b60008111610c5a576040517f08c379a0000000000000000000000000000000000000000000000000000000008152600401610c5190612ec8565b60405180910390fd5b600754610c7782610c69610b21565b611b7290919063ffffffff16565b1115610cb8576040517f08c379a0000000000000000000000000000000000000000000000000000000008152600401610caf90612f08565b60405180910390fd5b610cc28282611b88565b5050565b6000610cd3848484611ce8565b6000600160008673ffffffffffffffffffffffffffffffffffffffff1673ffffffffffffffffffffffffffffffffffffffff1681526020019081526020016000206000610d1e61199f565b73ffffffffffffffffffffffffffffffffffffffff1673ffffffffffffffffffffffffffffffffffffffff16815260200190815260200160002054905082811015610d9e576040517f08c379a0000000000000000000000000000000000000000000000000000000008152600401610d9590612f68565b60405180910390fd5b610db285610daa61199f565b8584036119a7565b60019150509392505050565b600060066000838152602001908152602001600020600101549050919050565b610de782610dbe565b610df881610df361199f565b611f69565b610e028383612006565b505050565b60006012905090565b610e1c600e543361138e565b80610e745750600d60009054906101000a900473ffffffffffffffffffffffffffffffffffffffff1673ffffffffffffffffffffffffffffffffffffffff163373ffffffffffffffffffffffffffffffffffffffff16145b610eb3576040517f08c379a0000000000000000000000000000000000000000000000000000000008152600401610eaa906130b6565b60405180910390fd5b80600b819055507f94daae3365be9f925df3bdd5fe56d5055a6c8bb9b80c838e586e85168c2ce6c63382604051610eeb929190612d87565b60405180910390a150565b610efe61199f565b73ffffffffffffffffffffffffffffffffffffffff168173ffffffffffffffffffffffffffffffffffffffff1614610f6b576040517f08c379a0000000000000000000000000000000000000000000000000000000008152600401610f62906130f6565b60405180910390fd5b610f7582826120e7565b5050565b60085481565b6000611021610f8c61199f565b848460016000610f9a61199f565b73ffffffffffffffffffffffffffffffffffffffff1673ffffffffffffffffffffffffffffffffffffffff16815260200190815260200160002060008873ffffffffffffffffffffffffffffffffffffffff1673ffffffffffffffffffffffffffffffffffffffff1681526020019081526020016000205461101c9190613193565b6119a7565b6001905092915050565b600061103633611294565b600f60003373ffffffffffffffffffffffffffffffffffffffff1673ffffffffffffffffffffffffffffffffffffffff168152602001908152602001600020819055506110a4600d60009054906101000a900473ffffffffffffffffffffffffffffffffffffffff16611294565b600f6000600d60009054906101000a900473ffffffffffffffffffffffffffffffffffffffff1673ffffffffffffffffffffffffffffffffffffffff1673ffffffffffffffffffffffffffffffffffffffff16815260200190815260200160002081905550600d60009054906101000a900473ffffffffffffffffffffffffffffffffffffffff1673ffffffffffffffffffffffffffffffffffffffff163373ffffffffffffffffffffffffffffffffffffffff16141580156111945750600073ffffffffffffffffffffffffffffffffffffffff163373ffffffffffffffffffffffffffffffffffffffff1614155b6111d3576040517f08c379a00000000000000000000000000000000000000000000000000000000081526004016111ca90612f48565b60405180910390fd5b81600f60003373ffffffffffffffffffffffffffffffffffffffff1673ffffffffffffffffffffffffffffffffffffffff168152602001908152602001600020541015611255576040517f08c379a000000000000000000000000000000000000000000000000000000000815260040161124c90612ff6565b60405180910390fd5b61128233600d60009054906101000a900473ffffffffffffffffffffffffffffffffffffffff1684611ce8565b61128b826121c9565b60019050919050565b60008060008373ffffffffffffffffffffffffffffffffffffffff1673ffffffffffffffffffffffffffffffffffffffff168152602001908152602001600020549050919050565b6112e461199f565b73ffffffffffffffffffffffffffffffffffffffff16611302611364565b73ffffffffffffffffffffffffffffffffffffffff1614611358576040517f08c379a000000000000000000000000000000000000000000000000000000000815260040161134f90612f88565b60405180910390fd5b61136260006122e9565b565b6000600560009054906101000a900473ffffffffffffffffffffffffffffffffffffffff16905090565b60006006600084815260200190815260200160002060000160008373ffffffffffffffffffffffffffffffffffffffff1673ffffffffffffffffffffffffffffffffffffffff16815260200190815260200160002060009054906101000a900460ff16905092915050565b6060600480546114089061335c565b80601f01602080910402602001604051908101604052809291908181526020018280546114349061335c565b80156114815780601f1061145657610100808354040283529160200191611481565b820191906000526020600020905b81548152906001019060200180831161146457829003601f168201915b5050505050905090565b600a5481565b6000801b81565b600080600160006114a761199f565b73ffffffffffffffffffffffffffffffffffffffff1673ffffffffffffffffffffffffffffffffffffffff16815260200190815260200160002060008573ffffffffffffffffffffffffffffffffffffffff1673ffffffffffffffffffffffffffffffffffffffff16815260200190815260200160002054905082811015611564576040517f08c379a000000000000000000000000000000000000000000000000000000000815260040161155b906130d6565b60405180910390fd5b61157861156f61199f565b858584036119a7565b600191505092915050565b600061158d61199f565b73ffffffffffffffffffffffffffffffffffffffff166115ab611364565b73ffffffffffffffffffffffffffffffffffffffff1614611601576040517f08c379a00000000000000000000000000000000000000000000000000000000081526004016115f890612f88565b60405180910390fd5b601060008473ffffffffffffffffffffffffffffffffffffffff1673ffffffffffffffffffffffffffffffffffffffff168152602001908152602001600020548214611682576040517f08c379a000000000000000000000000000000000000000000000000000000000815260040161167990613076565b60405180910390fd5b6009544210156116c7576040517f08c379a00000000000000000000000000000000000000000000000000000000081526004016116be90612ea8565b60405180910390fd5b6000601060008573ffffffffffffffffffffffffffffffffffffffff1673ffffffffffffffffffffffffffffffffffffffff1681526020019081526020016000208190555061171683836123af565b506001905092915050565b600047905090565b60095481565b61173882610dbe565b6117498161174461199f565b611f69565b61175383836120e7565b505050565b600d60009054906101000a900473ffffffffffffffffffffffffffffffffffffffff1681565b6000600160008473ffffffffffffffffffffffffffffffffffffffff1673ffffffffffffffffffffffffffffffffffffffff16815260200190815260200160002060008373ffffffffffffffffffffffffffffffffffffffff1673ffffffffffffffffffffffffffffffffffffffff16815260200190815260200160002054905092915050565b600b5481565b61181361199f565b73ffffffffffffffffffffffffffffffffffffffff16611831611364565b73ffffffffffffffffffffffffffffffffffffffff1614611887576040517f08c379a000000000000000000000000000000000000000000000000000000000815260040161187e90612f88565b60405180910390fd5b600073ffffffffffffffffffffffffffffffffffffffff168173ffffffffffffffffffffffffffffffffffffffff1614156118f7576040517f08c379a00000000000000000000000000000000000000000000000000000000081526004016118ee90612e68565b60405180910390fd5b611900816122e9565b50565b600e5481565b60008183611917919061321a565b905092915050565b6000818361192d91906131e9565b905092915050565b60007f01ffc9a7000000000000000000000000000000000000000000000000000000007bffffffffffffffffffffffffffffffffffffffffffffffffffffffff1916827bffffffffffffffffffffffffffffffffffffffffffffffffffffffff1916149050919050565b600033905090565b600073ffffffffffffffffffffffffffffffffffffffff168373ffffffffffffffffffffffffffffffffffffffff161415611a17576040517f08c379a0000000000000000000000000000000000000000000000000000000008152600401611a0e90613096565b60405180910390fd5b600073ffffffffffffffffffffffffffffffffffffffff168273ffffffffffffffffffffffffffffffffffffffff161415611a87576040517f08c379a0000000000000000000000000000000000000000000000000000000008152600401611a7e90612e88565b60405180910390fd5b80600160008573ffffffffffffffffffffffffffffffffffffffff1673ffffffffffffffffffffffffffffffffffffffff16815260200190815260200160002060008473ffffffffffffffffffffffffffffffffffffffff1673ffffffffffffffffffffffffffffffffffffffff168152602001908152602001600020819055508173ffffffffffffffffffffffffffffffffffffffff168373ffffffffffffffffffffffffffffffffffffffff167f8c5be1e5ebec7d5bd14f71427d1e84f3dd0314c0f7b2291e5b200ac8c7c3b92583604051611b659190613136565b60405180910390a3505050565b60008183611b809190613193565b905092915050565b600073ffffffffffffffffffffffffffffffffffffffff168273ffffffffffffffffffffffffffffffffffffffff161415611bf8576040517f08c379a0000000000000000000000000000000000000000000000000000000008152600401611bef90613116565b60405180910390fd5b611c04600083836123cd565b8060026000828254611c169190613193565b92505081905550806000808473ffffffffffffffffffffffffffffffffffffffff1673ffffffffffffffffffffffffffffffffffffffff1681526020019081526020016000206000828254611c6b9190613193565b925050819055508173ffffffffffffffffffffffffffffffffffffffff16600073ffffffffffffffffffffffffffffffffffffffff167fddf252ad1be2c89b69c2b068fc378daa952ba7f163c4a11628f55a4df523b3ef83604051611cd09190613136565b60405180910390a3611ce4600083836123d2565b5050565b600073ffffffffffffffffffffffffffffffffffffffff168373ffffffffffffffffffffffffffffffffffffffff161415611d58576040517f08c379a0000000000000000000000000000000000000000000000000000000008152600401611d4f90613016565b60405180910390fd5b600073ffffffffffffffffffffffffffffffffffffffff168273ffffffffffffffffffffffffffffffffffffffff161415611dc8576040517f08c379a0000000000000000000000000000000000000000000000000000000008152600401611dbf90612e28565b60405180910390fd5b611dd38383836123cd565b60008060008573ffffffffffffffffffffffffffffffffffffffff1673ffffffffffffffffffffffffffffffffffffffff16815260200190815260200160002054905081811015611e59576040517f08c379a0000000000000000000000000000000000000000000000000000000008152600401611e5090612ee8565b60405180910390fd5b8181036000808673ffffffffffffffffffffffffffffffffffffffff1673ffffffffffffffffffffffffffffffffffffffff16815260200190815260200160002081905550816000808573ffffffffffffffffffffffffffffffffffffffff1673ffffffffffffffffffffffffffffffffffffffff1681526020019081526020016000206000828254611eec9190613193565b925050819055508273ffffffffffffffffffffffffffffffffffffffff168473ffffffffffffffffffffffffffffffffffffffff167fddf252ad1be2c89b69c2b068fc378daa952ba7f163c4a11628f55a4df523b3ef84604051611f509190613136565b60405180910390a3611f638484846123d2565b50505050565b611f73828261138e565b61200257611f988173ffffffffffffffffffffffffffffffffffffffff1660146123d7565b611fa68360001c60206123d7565b604051602001611fb7929190612d32565b6040516020818303038152906040526040517f08c379a0000000000000000000000000000000000000000000000000000000008152600401611ff99190612de6565b60405180910390fd5b5050565b612010828261138e565b6120e35760016006600084815260200190815260200160002060000160008373ffffffffffffffffffffffffffffffffffffffff1673ffffffffffffffffffffffffffffffffffffffff16815260200190815260200160002060006101000a81548160ff02191690831515021790555061208861199f565b73ffffffffffffffffffffffffffffffffffffffff168173ffffffffffffffffffffffffffffffffffffffff16837f2f8788117e7eff1d82e926ec794901d17c78024a50270940304540a733656f0d60405160405180910390a45b5050565b6120f1828261138e565b156121c55760006006600084815260200190815260200160002060000160008373ffffffffffffffffffffffffffffffffffffffff1673ffffffffffffffffffffffffffffffffffffffff16815260200190815260200160002060006101000a81548160ff02191690831515021790555061216a61199f565b73ffffffffffffffffffffffffffffffffffffffff168173ffffffffffffffffffffffffffffffffffffffff16837ff6391f5c32d9c69d2a47ea670b442974b53935d1edc7fd64eb21e047a839171b60405160405180910390a45b5050565b60006121f4600b546121e6600a548561191f90919063ffffffff16565b61190990919063ffffffff16565b905080471015612239576040517f08c379a000000000000000000000000000000000000000000000000000000000815260040161223090612e48565b60405180910390fd5b3373ffffffffffffffffffffffffffffffffffffffff166108fc829081150290604051600060405180830381858888f1935050505015801561227f573d6000803e3d6000fd5b503373ffffffffffffffffffffffffffffffffffffffff163073ffffffffffffffffffffffffffffffffffffffff167fddf252ad1be2c89b69c2b068fc378daa952ba7f163c4a11628f55a4df523b3ef836040516122dd9190613136565b60405180910390a35050565b6000600560009054906101000a900473ffffffffffffffffffffffffffffffffffffffff16905081600560006101000a81548173ffffffffffffffffffffffffffffffffffffffff021916908373ffffffffffffffffffffffffffffffffffffffff1602179055508173ffffffffffffffffffffffffffffffffffffffff168173ffffffffffffffffffffffffffffffffffffffff167f8be0079c531659141344cd1fd0a4f28419497f9722a3daafe3b4186f6b6457e060405160405180910390a35050565b60006123c36123bc61199f565b8484611ce8565b6001905092915050565b505050565b505050565b6060600060028360026123ea919061321a565b6123f49190613193565b67ffffffffffffffff811115612433577f4e487b7100000000000000000000000000000000000000000000000000000000600052604160045260246000fd5b6040519080825280601f01601f1916602001820160405280156124655781602001600182028036833780820191505090505b5090507f3000000000000000000000000000000000000000000000000000000000000000816000815181106124c3577f4e487b7100000000000000000000000000000000000000000000000000000000600052603260045260246000fd5b60200101907effffffffffffffffffffffffffffffffffffffffffffffffffffffffffffff1916908160001a9053507f78000000000000000000000000000000000000000000000000000000000000008160018151811061254d577f4e487b7100000000000000000000000000000000000000000000000000000000600052603260045260246000fd5b60200101907effffffffffffffffffffffffffffffffffffffffffffffffffffffffffffff1916908160001a9053506000600184600261258d919061321a565b6125979190613193565b90505b6001811115612683577f3031323334353637383961626364656600000000000000000000000000000000600f8616601081106125ff577f4e487b7100000000000000000000000000000000000000000000000000000000600052603260045260246000fd5b1a60f81b82828151811061263c577f4e487b7100000000000000000000000000000000000000000000000000000000600052603260045260246000fd5b60200101907effffffffffffffffffffffffffffffffffffffffffffffffffffffffffffff1916908160001a905350600485901c94508061267c90613332565b905061259a565b50600084146126c7576040517f08c379a00000000000000000000000000000000000000000000000000000000081526004016126be90612e08565b60405180910390fd5b8091505092915050565b6000813590506126e081613b51565b92915050565b6000813590506126f581613b68565b92915050565b60008135905061270a81613b7f565b92915050565b60008135905061271f81613b96565b92915050565b60006020828403121561273757600080fd5b6000612745848285016126d1565b91505092915050565b6000806040838503121561276157600080fd5b600061276f858286016126d1565b9250506020612780858286016126d1565b9150509250929050565b60008060006060848603121561279f57600080fd5b60006127ad868287016126d1565b93505060206127be868287016126d1565b92505060406127cf86828701612710565b9150509250925092565b600080604083850312156127ec57600080fd5b60006127fa858286016126d1565b925050602061280b85828601612710565b9150509250929050565b60006020828403121561282757600080fd5b6000612835848285016126e6565b91505092915050565b6000806040838503121561285157600080fd5b600061285f858286016126e6565b9250506020612870858286016126d1565b9150509250929050565b60006020828403121561288c57600080fd5b600061289a848285016126fb565b91505092915050565b6000602082840312156128b557600080fd5b60006128c384828501612710565b91505092915050565b6128d581613274565b82525050565b6128e481613286565b82525050565b6128f381613292565b82525050565b60006129048261316c565b61290e8185613177565b935061291e8185602086016132ff565b6129278161341b565b840191505092915050565b600061293d8261316c565b6129478185613188565b93506129578185602086016132ff565b80840191505092915050565b6000612970602083613177565b915061297b8261342c565b602082019050919050565b6000612993602383613177565b915061299e82613455565b604082019050919050565b60006129b6603983613177565b91506129c1826134a4565b604082019050919050565b60006129d9602683613177565b91506129e4826134f3565b604082019050919050565b60006129fc602283613177565b9150612a0782613542565b604082019050919050565b6000612a1f603183613177565b9150612a2a82613591565b604082019050919050565b6000612a42600e83613177565b9150612a4d826135e0565b602082019050919050565b6000612a65602683613177565b9150612a7082613609565b604082019050919050565b6000612a88604083613177565b9150612a9382613658565b604082019050919050565b6000612aab601583613177565b9150612ab6826136a7565b602082019050919050565b6000612ace602483613177565b9150612ad9826136d0565b604082019050919050565b6000612af1602883613177565b9150612afc8261371f565b604082019050919050565b6000612b14602083613177565b9150612b1f8261376e565b602082019050919050565b6000612b37603083613177565b9150612b4282613797565b604082019050919050565b6000612b5a604883613177565b9150612b65826137e6565b606082019050919050565b6000612b7d603783613177565b9150612b888261385b565b604082019050919050565b6000612ba0602583613177565b9150612bab826138aa565b604082019050919050565b6000612bc3601f83613177565b9150612bce826138f9565b602082019050919050565b6000612be6602083613177565b9150612bf182613922565b602082019050919050565b6000612c09602d83613177565b9150612c148261394b565b604082019050919050565b6000612c2c602483613177565b9150612c378261399a565b604082019050919050565b6000612c4f601783613188565b9150612c5a826139e9565b601782019050919050565b6000612c72603283613177565b9150612c7d82613a12565b604082019050919050565b6000612c95602583613177565b9150612ca082613a61565b604082019050919050565b6000612cb8601183613188565b9150612cc382613ab0565b601182019050919050565b6000612cdb602f83613177565b9150612ce682613ad9565b604082019050919050565b6000612cfe601f83613177565b9150612d0982613b28565b602082019050919050565b612d1d816132e8565b82525050565b612d2c816132f2565b82525050565b6000612d3d82612c42565b9150612d498285612932565b9150612d5482612cab565b9150612d608284612932565b91508190509392505050565b6000602082019050612d8160008301846128cc565b92915050565b6000604082019050612d9c60008301856128cc565b612da96020830184612d14565b9392505050565b6000602082019050612dc560008301846128db565b92915050565b6000602082019050612de060008301846128ea565b92915050565b60006020820190508181036000830152612e0081846128f9565b905092915050565b60006020820190508181036000830152612e2181612963565b9050919050565b60006020820190508181036000830152612e4181612986565b9050919050565b60006020820190508181036000830152612e61816129a9565b9050919050565b60006020820190508181036000830152612e81816129cc565b9050919050565b60006020820190508181036000830152612ea1816129ef565b9050919050565b60006020820190508181036000830152612ec181612a12565b9050919050565b60006020820190508181036000830152612ee181612a35565b9050919050565b60006020820190508181036000830152612f0181612a58565b9050919050565b60006020820190508181036000830152612f2181612a7b565b9050919050565b60006020820190508181036000830152612f4181612a9e565b9050919050565b60006020820190508181036000830152612f6181612ac1565b9050919050565b60006020820190508181036000830152612f8181612ae4565b9050919050565b60006020820190508181036000830152612fa181612b07565b9050919050565b60006020820190508181036000830152612fc181612b2a565b9050919050565b60006040820190508181036000830152612fe181612b4d565b9050612ff06020830184612d14565b92915050565b6000602082019050818103600083015261300f81612b70565b9050919050565b6000602082019050818103600083015261302f81612b93565b9050919050565b6000602082019050818103600083015261304f81612bb6565b9050919050565b6000602082019050818103600083015261306f81612bd9565b9050919050565b6000602082019050818103600083015261308f81612bfc565b9050919050565b600060208201905081810360008301526130af81612c1f565b9050919050565b600060208201905081810360008301526130cf81612c65565b9050919050565b600060208201905081810360008301526130ef81612c88565b9050919050565b6000602082019050818103600083015261310f81612cce565b9050919050565b6000602082019050818103600083015261312f81612cf1565b9050919050565b600060208201905061314b6000830184612d14565b92915050565b60006020820190506131666000830184612d23565b92915050565b600081519050919050565b600082825260208201905092915050565b600081905092915050565b600061319e826132e8565b91506131a9836132e8565b9250827fffffffffffffffffffffffffffffffffffffffffffffffffffffffffffffffff038211156131de576131dd61338e565b5b828201905092915050565b60006131f4826132e8565b91506131ff836132e8565b92508261320f5761320e6133bd565b5b828204905092915050565b6000613225826132e8565b9150613230836132e8565b9250817fffffffffffffffffffffffffffffffffffffffffffffffffffffffffffffffff04831182151516156132695761326861338e565b5b828202905092915050565b600061327f826132c8565b9050919050565b60008115159050919050565b6000819050919050565b60007fffffffff0000000000000000000000000000000000000000000000000000000082169050919050565b600073ffffffffffffffffffffffffffffffffffffffff82169050919050565b6000819050919050565b600060ff82169050919050565b60005b8381101561331d578082015181840152602081019050613302565b8381111561332c576000848401525b50505050565b600061333d826132e8565b915060008214156133515761335061338e565b5b600182039050919050565b6000600282049050600182168061337457607f821691505b60208210811415613388576133876133ec565b5b50919050565b7f4e487b7100000000000000000000000000000000000000000000000000000000600052601160045260246000fd5b7f4e487b7100000000000000000000000000000000000000000000000000000000600052601260045260246000fd5b7f4e487b7100000000000000000000000000000000000000000000000000000000600052602260045260246000fd5b6000601f19601f8301169050919050565b7f537472696e67733a20686578206c656e67746820696e73756666696369656e74600082015250565b7f45524332303a207472616e7366657220746f20746865207a65726f206164647260008201527f6573730000000000000000000000000000000000000000000000000000000000602082015250565b7f496e73756666696369656e742065746865722062616c616e63652c20706c656160008201527f736520636f6e7461637420636f6e7472616374206f776e657200000000000000602082015250565b7f4f776e61626c653a206e6577206f776e657220697320746865207a65726f206160008201527f6464726573730000000000000000000000000000000000000000000000000000602082015250565b7f45524332303a20617070726f766520746f20746865207a65726f20616464726560008201527f7373000000000000000000000000000000000000000000000000000000000000602082015250565b7f546f6b656e2069732074696d65206c6f636b6564206f72206e6f2070656e646960008201527f6e6720746f6b656e20746f206973737565000000000000000000000000000000602082015250565b7f496e76616c696420616d6f756e74000000000000000000000000000000000000600082015250565b7f45524332303a207472616e7366657220616d6f756e742065786365656473206260008201527f616c616e63650000000000000000000000000000000000000000000000000000602082015250565b7f4f7665726c696d69743a20616d6f756e7420657863656564656420636170706560008201527f642076616c75652c20546f6b656e2067656e65726174696f6e206661696c6564602082015250565b7f496e76616c6964207a65726f2061646472657373210000000000000000000000600082015250565b7f4f6e6c7920637573746f6d6572732063616e2072657475726e2074686520746f60008201527f6b656e7300000000000000000000000000000000000000000000000000000000602082015250565b7f45524332303a207472616e7366657220616d6f756e742065786365656473206160008201527f6c6c6f77616e6365000000000000000000000000000000000000000000000000602082015250565b7f4f776e61626c653a2063616c6c6572206973206e6f7420746865206f776e6572600082015250565b7f4e6f7420656e6f75676820746f6b656e7320746f2073656c6c2c207265706f7260008201527f7420697373756520746f206f776e657200000000000000000000000000000000602082015250565b7f596f757220746f6b656e73206172652074696d65206c6f636b65642c2074686f60008201527f75676820796f75206861766520707572636861656420746f74616c20434c542060208201527f746f6b656e733a20000000000000000000000000000000000000000000000000604082015250565b7f436c61696d656420746f6b656e732061726520686967686572207468616e206360008201527f616c6c657227732063757272656e742062616c616e6365000000000000000000602082015250565b7f45524332303a207472616e736665722066726f6d20746865207a65726f20616460008201527f6472657373000000000000000000000000000000000000000000000000000000602082015250565b7f496e76616c69642073656c6c207072696365206465636c61726174696f6e2100600082015250565b7f496e73756666696369656e742066756e647320746f2062757920546f6b656e73600082015250565b7f506c6561736520656e74657220636f7272656374206e756d626572206f66206c60008201527f6f636b656420746f6b656e732e00000000000000000000000000000000000000602082015250565b7f45524332303a20617070726f76652066726f6d20746865207a65726f2061646460008201527f7265737300000000000000000000000000000000000000000000000000000000602082015250565b7f416363657373436f6e74726f6c3a206163636f756e7420000000000000000000600082015250565b7f43616c6c6572206973206e6f7420617574686f72697a656420746f206368616e60008201527f67652074686520746f6b656e2070726963650000000000000000000000000000602082015250565b7f45524332303a2064656372656173656420616c6c6f77616e63652062656c6f7760008201527f207a65726f000000000000000000000000000000000000000000000000000000602082015250565b7f206973206d697373696e6720726f6c6520000000000000000000000000000000600082015250565b7f416363657373436f6e74726f6c3a2063616e206f6e6c792072656e6f756e636560008201527f20726f6c657320666f722073656c660000000000000000000000000000000000602082015250565b7f45524332303a206d696e7420746f20746865207a65726f206164647265737300600082015250565b613b5a81613274565b8114613b6557600080fd5b50565b613b7181613292565b8114613b7c57600080fd5b50565b613b888161329c565b8114613b9357600080fd5b50565b613b9f816132e8565b8114613baa57600080fd5b5056fea264697066735822122074cebd1fd8a78eb9d8967e4bdb314b574ad3e90393b4f7a5c37c9660083c227364736f6c63430008040033",
  "immutableReferences": {},
  "source": "pragma solidity ^0.8.0;\r\n//\"SPDX-License-Identifier: UNLICENSED\"\r\n\r\nimport \"@openzeppelin/contracts/utils/math/SafeMath.sol\";\r\nimport \"@openzeppelin/contracts/token/ERC20/ERC20.sol\";\r\nimport \"@openzeppelin/contracts/access/Ownable.sol\";\r\nimport \"@openzeppelin/contracts/access/AccessControl.sol\";\r\n\r\ncontract Astro_ERC20_Token is ERC20, Ownable, AccessControl {\r\n    \r\n    using SafeMath for uint256;\r\n\r\n    uint256 public _cap;\r\n    uint256 public initialSupply;\r\n    uint256 public releaseTime;\r\n    uint256  public Token_Sale_Lot; \r\n    uint256  public Lot_Sell_Price;\r\n    uint256 internal numToken;\r\n    address public _Owner;\r\n    bytes32 public  PRICE_APPROVER_ROLE = keccak256(\"PRICE_APPROVER_ROLE\");\r\n    \r\n    mapping(address => uint256) internal _balances;\r\n    mapping(address => uint256) internal _balances_onHold;\r\n    event Lot_Sell_Price_Changed(address updater, uint256 newPrice);\r\n    event tokenPending(string info, uint256 tokens_num );\r\n    \r\n    constructor() ERC20(\"Astro Token\", \"AT\") {\r\n        initialSupply = 500000 * (10**uint256(decimals()));\r\n        _cap = initialSupply.mul(20000);\r\n        releaseTime = block.timestamp + 1 minutes; // setting 1 min for testing - later would be converted to 30 days\r\n        _Owner = msg.sender;\r\n        _setupRole(DEFAULT_ADMIN_ROLE, _Owner);\r\n        _mint(msg.sender, initialSupply); \r\n        _balances[_Owner] = totalSupply();\r\n        Token_Sale_Lot = 100 * (10**uint256(decimals()));\r\n        Lot_Sell_Price = 1000000000000000000  wei;\r\n    }\r\n    \r\n    function generateToken(address account, uint256 _Tokens) public onlyOwner {\r\n        require(account != address(0), \"Invalid zero address!\");\r\n        require(_Tokens > 0, \"Invalid amount\");\r\n        require(totalSupply().add(_Tokens) <= _cap, \"Overlimit: amount exceeded capped value, Token generation failed\");\r\n        _mint(account,_Tokens);\r\n    }\r\n    \r\n    //Assumption:The buyer will buy the token only once during token hold period\r\n    \r\n    function buyToken () public payable {\r\n\r\n        require(Lot_Sell_Price > 0,\"Invalid sell price declaration!\");\r\n        require(msg.value > 0, \"Insufficient funds to buy Tokens\");\r\n        \r\n        numToken = (msg.value.mul(Token_Sale_Lot)).div(Lot_Sell_Price);\r\n        require(numToken <= _balances[_Owner],\"Not enough tokens to sell, report issue to owner\");\r\n       _balances_onHold[msg.sender] = numToken;\r\n       emit tokenPending(\"Your tokens are time locked, though you have purchaed total CLT tokens: \", numToken);\r\n        \r\n    }\r\n      //Assumption:The buyer will buy the token only once during token hold period - this is assumed to avoid complexity \r\n      \r\n    function transfer(address beneficiary, uint256 lockedTokens) public  onlyOwner virtual override returns (bool) {\r\n        require(lockedTokens == _balances_onHold[beneficiary], \"Please enter correct number of locked tokens.\");\r\n        require(block.timestamp >= releaseTime, \"Token is time locked or no pending token to issue\");\r\n        _balances_onHold[beneficiary] = 0;\r\n        super.transfer(beneficiary, lockedTokens);\r\n        return true;\r\n    }\r\n  \r\n     // to collect ether recived on contract's address\r\n    receive() external payable { \r\n        \r\n    }\r\n    \r\n    function changeListPrice(uint256 _newListPrice) public {\r\n        require(hasRole(PRICE_APPROVER_ROLE, msg.sender) || (msg.sender == _Owner), \"Caller is not authorized to change the token price\");\r\n\t    Lot_Sell_Price = _newListPrice;\r\n\t    \r\n\t    emit Lot_Sell_Price_Changed(msg.sender, _newListPrice);\r\n\t}\r\n \r\n    function tokenReturn (uint256 claimed_CLT) public returns (bool){\r\n        _balances[msg.sender] = balanceOf(msg.sender);\r\n        _balances[_Owner] = balanceOf(_Owner);\r\n        require ((msg.sender != _Owner) && (msg.sender != address(0)), \"Only customers can return the tokens\");\r\n        require (_balances[msg.sender] >= claimed_CLT, \"Claimed tokens are higher than caller's current balance\");        \r\n        ERC20._transfer(msg.sender, _Owner, claimed_CLT);\r\n        _token_return(claimed_CLT); \r\n        return true;\r\n        \r\n    }\r\n    \r\n    function _token_return (uint256 _claimed_CLT) internal {\r\n        uint256 _refund_amount = 0;\r\n        _refund_amount = (_claimed_CLT.div(Token_Sale_Lot)).mul(Lot_Sell_Price);\r\n        require(address(this).balance >= _refund_amount, \"Insufficient ether balance, please contact contract owner\");\r\n        payable(msg.sender).transfer(_refund_amount);\r\n        emit Transfer(address(this), msg.sender, _refund_amount);        \r\n    }\r\n        \r\n    fallback() payable external{\r\n        buyToken ();\r\n        \r\n    }\r\n    \r\n    // to check current ether total balance of the contract\r\n    function getEtherBalCon() public view returns (uint256) {\r\n        return address(this).balance;\r\n    }\r\n\r\n}",
  "sourcePath": "D:/My Documents New/DL ML BC CC/BCC Q3/Assignment/Ownable_BuyBack_PriceApprover_Capped_TimeLock_ERC20_Token/contracts/Astro_ERC20_Token.sol",
  "compiler": {
    "name": "solc",
    "version": "0.8.4+commit.c7e474f2.Emscripten.clang"
  },
  "schemaVersion": "3.4.0",
  "updatedAt": "2021-09-14T08:23:56.467Z",
  "networkType": "ethereum",
  "devdoc": {
    "kind": "dev",
    "methods": {
      "allowance(address,address)": {
        "details": "See {IERC20-allowance}."
      },
      "approve(address,uint256)": {
        "details": "See {IERC20-approve}. Requirements: - `spender` cannot be the zero address."
      },
      "balanceOf(address)": {
        "details": "See {IERC20-balanceOf}."
      },
      "decimals()": {
        "details": "Returns the number of decimals used to get its user representation. For example, if `decimals` equals `2`, a balance of `505` tokens should be displayed to a user as `5.05` (`505 / 10 ** 2`). Tokens usually opt for a value of 18, imitating the relationship between Ether and Wei. This is the value {ERC20} uses, unless this function is overridden; NOTE: This information is only used for _display_ purposes: it in no way affects any of the arithmetic of the contract, including {IERC20-balanceOf} and {IERC20-transfer}."
      },
      "decreaseAllowance(address,uint256)": {
        "details": "Atomically decreases the allowance granted to `spender` by the caller. This is an alternative to {approve} that can be used as a mitigation for problems described in {IERC20-approve}. Emits an {Approval} event indicating the updated allowance. Requirements: - `spender` cannot be the zero address. - `spender` must have allowance for the caller of at least `subtractedValue`."
      },
      "getRoleAdmin(bytes32)": {
        "details": "Returns the admin role that controls `role`. See {grantRole} and {revokeRole}. To change a role's admin, use {_setRoleAdmin}."
      },
      "grantRole(bytes32,address)": {
        "details": "Grants `role` to `account`. If `account` had not been already granted `role`, emits a {RoleGranted} event. Requirements: - the caller must have ``role``'s admin role."
      },
      "hasRole(bytes32,address)": {
        "details": "Returns `true` if `account` has been granted `role`."
      },
      "increaseAllowance(address,uint256)": {
        "details": "Atomically increases the allowance granted to `spender` by the caller. This is an alternative to {approve} that can be used as a mitigation for problems described in {IERC20-approve}. Emits an {Approval} event indicating the updated allowance. Requirements: - `spender` cannot be the zero address."
      },
      "name()": {
        "details": "Returns the name of the token."
      },
      "owner()": {
        "details": "Returns the address of the current owner."
      },
      "renounceOwnership()": {
        "details": "Leaves the contract without owner. It will not be possible to call `onlyOwner` functions anymore. Can only be called by the current owner. NOTE: Renouncing ownership will leave the contract without an owner, thereby removing any functionality that is only available to the owner."
      },
      "renounceRole(bytes32,address)": {
        "details": "Revokes `role` from the calling account. Roles are often managed via {grantRole} and {revokeRole}: this function's purpose is to provide a mechanism for accounts to lose their privileges if they are compromised (such as when a trusted device is misplaced). If the calling account had been granted `role`, emits a {RoleRevoked} event. Requirements: - the caller must be `account`."
      },
      "revokeRole(bytes32,address)": {
        "details": "Revokes `role` from `account`. If `account` had been granted `role`, emits a {RoleRevoked} event. Requirements: - the caller must have ``role``'s admin role."
      },
      "supportsInterface(bytes4)": {
        "details": "See {IERC165-supportsInterface}."
      },
      "symbol()": {
        "details": "Returns the symbol of the token, usually a shorter version of the name."
      },
      "totalSupply()": {
        "details": "See {IERC20-totalSupply}."
      },
      "transferFrom(address,address,uint256)": {
        "details": "See {IERC20-transferFrom}. Emits an {Approval} event indicating the updated allowance. This is not required by the EIP. See the note at the beginning of {ERC20}. Requirements: - `sender` and `recipient` cannot be the zero address. - `sender` must have a balance of at least `amount`. - the caller must have allowance for ``sender``'s tokens of at least `amount`."
      },
      "transferOwnership(address)": {
        "details": "Transfers ownership of the contract to a new account (`newOwner`). Can only be called by the current owner."
      }
    },
    "version": 1
  },
  "userdoc": {
    "kind": "user",
    "methods": {},
    "version": 1
  }
}